:020000040800F2
:10000000B826002005010008B5270008E7210008F0
:1000100059270008E5070008B92C00080000000077
:10002000000000000000000000000000B3280008ED
:10003000E707000800000000B1280008B528000804
:100040001F0100081F0100081F0100081F01000810
:100050001F0100081F0100081F0100081F01000800
:100060001F0100081F0100081F0100081F010008F0
:100070001F0100081F0100081F0100081F010008E0
:100080001F0100081F0100081F0100081F010008D0
:10009000AD2C00081F0100081F0100081F01000807
:1000A0001F010008192900081F0100081F0100088E
:1000B0001F0100081F0100081F0100081F010008A0
:1000C0001F0100081F0100081F0100081F01000890
:1000D0001F010008892C0008952C0008A12C00089D
:1000E0001F0100081F0100081F010008DFF810D0E1
:1000F00000F058FB00480047FD350008AFF30080D2
:10010000B82600200648804706480047FEE7FEE77D
:10011000FEE7FEE7FEE7FEE7FEE7FEE7FEE7FEE7B7
:1001200017290008ED000008202A04DB203A21FAF4
:1001300002F00021704721FA02F3D040C2F1200200
:100140009140084319467047D2B201E000F8012BF4
:10015000491EFBD270470022F6E710B513460A4647
:1001600004461946FFF7F0FF204610BD30B505469E
:100170002A460B4612F8010B13F8014B08B1A042B6
:10018000F8D01CB1002802D06D1CF1E7284630BD24
:100190002DE9F04791460F4680460446002614F8A4
:1001A000015B2DB100F0C6F90068405DC007F6D1D3
:1001B0002B2D02D02D2D18D0641E4A4639462046DC
:1001C00000F0BCF927B13968A14201D1C7F800801D
:1001D00071054FF002040BD54042002803DD02F008
:1001E000A7FD0460A007BDE8F08746F48066E4E759
:1001F0000028F8DA02F09CFD04606FF00040F2E79E
:100200002DE9FE4F804681EA0300C00F0C460090A6
:1002100021F0004123F00045B8EB0200A94105D2CE
:100220004046214690461C460B46024623F00040BD
:10023000104347D0270DC7F30A00C3F30A510290B9
:10024000401A019040286BDAC3F3130040F4801B7E
:100250000098924620B10023D2EB030A63EB0B0B0C
:1002600001985946C0F14002504600F042F9064656
:100270000D4650465946019A00F04AF910EB080025
:100280006141002487EA115284EAE7731A4340D09F
:10029000009A62B3019A012A4FEA075215DC001B4B
:1002A00061EB02014FF0004202EA0752CDE9004241
:1002B000001C41F5801132462B4600F09DF903B039
:1002C000BDE8F08F40462146F9E7001B61EB0201D3
:1002D000001C41F5801300185B412018A2F500179F
:1002E00047EB030140EAD570B6196D4111E06D0886
:1002F0004FEA360645EAC0754FEA0752001B61EB2C
:100300000201001C41F5801149084FEA3000001934
:10031000514132462B4603B0BDE8F04F00F05DB9C5
:100320000098012240000023D0EB020263EBE0734F
:10033000009821464FEAE074B8EB000061EB04013D
:10034000E9E783F000435BE781F0004158E72DE9DE
:10035000FE4F81EA030404F0004421F000410094C0
:100360004FF0000B23F0004350EA01045ED052EA44
:1003700003045BD0C3F30A54C1F30A552C44A4F21E
:10038000F3340194A0FB0254C1F3130141F4801132
:10039000C3F3130343F4801301FB024400FB034E39
:1003A000840A970A44EA815447EA8357A4FB076802
:1003B00002958D0A05FB07854FEA932C04FB0C542C
:1003C0002705029D4FEA065847EA1637B5EB0805A0
:1003D0006EEB070C870E920E47EA811742EA8312F2
:1003E000A7FB0201B6EB0B0164EB00042B0D43EA03
:1003F0000C335E1844EB1C50DA465146E7FB020111
:10040000C5F313044FEA0B3343EA14534FEA0432A3
:10041000019C43EA0603A4F10C040294009CCDE97C
:1004200000B400F0E9F803B0BDE8F08F0020014609
:10043000F9E7000030B5041E71F1000404DB4FF051
:100440000044404264EB0101141E73F1000405DB1B
:100450001C464FF00043524263EB0403994208BF2D
:10046000904230BD30B50B460146002020220124C9
:1004700009E021FA02F59D4205D303FA02F5491B72
:1004800004FA02F52844151EA2F10102F1DC30BD88
:100490002DE9F05F0546002092469B4688460646B9
:1004A000814640241BE02846414647462246FFF746
:1004B0003BFE53465A46C01A914110D31146184686
:1004C000224600F016F82D1A67EB01084F46224627
:1004D0000120002100F00DF817EB00094E41201E0D
:1004E000A4F10104DFDC484631462A464346BDE814
:1004F000F09F202A04DB203A00FA02F10020704726
:100500009140C2F1200320FA03F319439040704751
:10051000202A06DBCB17203A41FA02F043EAE073C7
:1005200006E041FA02F3D040C2F1200291400843B4
:100530001946704700487047404800082DE9F05FB1
:1005400082460078002715468B460AF10104B94619
:10055000302801D09DB113E014F8010B0127782851
:1005600003D0582801D045B10AE00DB1102D07D1B4
:100570000027102514F8010B02E0082500E00A25E9
:100580000026B0460EE005FB080005FB06F101273A
:1005900001EB10461FFA80F8B6F5803F00D3B9464C
:1005A00014F8010B294600F00FF90028EBDABBF133
:1005B000000F05D00FB1641E00E05446CBF8004098
:1005C000B9F1000F06D002F0B3FB02210160C81E92
:1005D000BDE8F09F48EA0640FAE710B5141E73F133
:1005E000000408DA401C41F1000192185B411A43F3
:1005F00001D120F0010010BD2DE9F04D92469B463F
:1006000011B1B1FA81F202E0B0FA80F220329046E4
:10061000FFF76FFF04460F4640EA0A0041EA0B016C
:1006200053465A46084313D0114653EA010019D0E5
:10063000C8F140025046FFF777FD05460E4650468A
:1006400059464246FFF755FF084305D0012004E014
:1006500020463946BDE8F08D0020054346EAE076A5
:100660002C4337430A986305E40AA0EB08000022F4
:10067000FD0A44EA47540A3002D500200146E9E762
:10068000010510196941DDE9084500196941BDE816
:10069000F04DA2E72DE9F04D81EA030404F0004B90
:1006A00021F0004514464FF0000A23F0004150EAC3
:1006B000050220D054EA01021DD0C5F30A570246B4
:1006C000C5F31303C1F31300C1F30A5640F48015B8
:1006D00043F48013A7EB0608101BD64608F2FD383A
:1006E00073EB050002D308F1010801E092185B41A9
:1006F000B8F1000F03DA00200146BDE8F08D0020BC
:100700004FF48011064684460EE0171B73EB050775
:1007100005D3121B63EB050306434CEA010C4908A1
:100720004FEA300092185B4150EA0107EDD152EADE
:10073000030012D082EA040083EA0501084305D0D1
:10074000101BAB4106D20122002306E000224FF02D
:10075000004302E06FF0010253101AEB06004CEB6D
:10076000085110EB0A0041EB0B01BDE8F04DFFF71B
:1007700034BFC1F30A52C1F3130140F2FF3341F415
:1007800080119A4202DA00200146704740F233435A
:100790009A42A2F2334202DC5242FFF7C5BCFFF795
:1007A000A8BE0000064C074D06E0E06840F00103DB
:1007B00094E8070098471034AC42F6D3FFF79AFC50
:1007C00044480008644800083A2800D2303820F035
:1007D0002002412A01D3A2F13700884201D34FF011
:1007E000FF307047FEE7704772B6FEE770472DE9AD
:1007F000F05F0546006800244669D0F804908768D9
:10080000D0F80CB0D0F810A0D0F81880F10748D07C
:10081000F90714D001218160B80703D5284600F0FC
:10082000B5F90CE0780702D54FF4006407E038070B
:1008300002D54FF4805402E0284600F0A6F9F805EE
:1008400016D529684FF480708860B80503D528460E
:1008500000F09EF90CE0780502D544F4005407E05E
:10086000380502D544F4804402E0284600F08FF9B0
:10087000F80316D529684FF480308860B80303D593
:10088000284600F087F90CE0780302D544F40044D0
:1008900007E0380302D544F4803402E0284600F033
:1008A00078F9300707D55FEACB6004D529681020B6
:1008B00044F40074C86070074FF0080707D55FEA7A
:1008C0000B7004D52868C760284600F059F9B007B6
:1008D00006D52868C068800702D0284600F051F984
:1008E000700607D55FEACA6004D52968102044F471
:1008F00080640861B00607D55FEA0A7004D52868ED
:100900000761284600F03EF9F00606D52868006920
:10091000800702D0284600F036F9B00308D55FEA18
:10092000C96005D5296810204860284600F02CF9D8
:10093000F00307D55FEA097004D5286847602846A8
:1009400000F029F9300446D55FEA497040D5F0053A
:1009500004D55FEAC87001D044F00104B00504D5A5
:100960005FEA887001D544F00204700504D55FEA9F
:10097000487001D544F00404300529D518F0700FF3
:1009800026D008F07000402815D006DC102809D0C9
:1009900020280AD0302816D10AE050280ED060282E
:1009A00011D10EE044F008040DE044F010040AE018
:1009B00044F0200407E044F0400404E044F08004E4
:1009C00001E044F480742868816921F0700181613C
:1009D000296804204860002C05D0686A20436862BA
:1009E0002846FFF703FFBDE8F09F70B5040003D071
:1009F00094F8200010B104E0012070BD204600F002
:100A000081F82068016841F00101016000F03CFAC2
:100A10000546052604E000F037FA401B0A2811D8E5
:100A200020684068C007F6D02068016821F0020104
:100A3000016000F029FA05460BE000F025FA401BA2
:100A40000A2806D9606A40F40030606284F82060A9
:100A5000D2E7206840688007EFD4207E0128206814
:100A600001683DD021F080010160607E012820688E
:100A7000016838D021F040010160A07E0128206883
:100A8000016833D021F020010160E07E0128206858
:100A900001682ED041F010010160207F01282068FC
:100AA000016829D021F008010160607F01282068D9
:100AB000016824D021F004010160D4E90201084357
:100AC000D4E90412114308436168491E08432168B0
:100AD000C86100206062012084F82000002070BD01
:100AE00041F08001C0E741F04001C5E741F020013D
:100AF000CAE721F01001CFE741F00801D4E741F047
:100B00000401D9E710B586B000210091019102914E
:100B100003910068174988422AD11748C16941F0FA
:100B20000071C161C16901F000710491816941F0F6
:100B3000040181618069114C00F0040004904FF4BD
:100B4000006000906946204600F0A8F8A0140090CC
:100B500002200190032003906946204600F09EF891
:100B600000221146142000F085FB142000F074FBD5
:100B700006B010BD006400400010024000080140B3
:100B800070477047704770477047704770477047AD
:100B9000704770477047704710B590F821100022D9
:100BA000022905D00421816380F82020012010BD96
:100BB00001680B6823F00E030B6001680B6823F0DB
:100BC00001030B6090F84030C46B012101FA03F37C
:100BD000636080F8211080F82020104610BD0000CE
:100BE00010B590F821100024022903D0042181635C
:100BF00001243DE001680A6822F00E020A600168E3
:100C00000A6822F001020A601A4A0168914201D181
:100C1000012121E0174A1432914201D110211BE039
:100C2000144A2832914201D1891515E0114A3C320B
:100C3000914201D189140FE00E4A5032914202D103
:100C40004FF4803108E00B4A6432914202D14FF4F4
:100C5000801101E04FF08071064A083A516001218D
:100C600080F82110002180F82010416B01B18847E5
:100C7000204610BD0800024070B5044600F004F99B
:100C80000546601C02D004480078044400F0FCF8DB
:100C9000401BA042FAD370BD100000202DE9F84F90
:100CA000DFF8B8910024A9F1040B23460F2709F1BE
:100CB000040AABF1040EC9E00125A5402A40AA426E
:100CC0007DD1674ED1F804C0ACEB0608B44532D0F4
:100CD00014DCBCF1030F3AD009DCBCF1000F2AD0C0
:100CE000BCF1010F1CD0BCF1020F31D11DE0BCF1F1
:100CF000110F17D0BCF1120F2AD119E0B8F5881FD7
:100D000019D006DCB8F5803F15D0B8F5801F1FD18B
:100D100011E0B8F5001F0ED0B8F5041F18D10AE095
:100D2000CB6815E0CB681B1D12E0CB6808330FE0E1
:100D3000CB680C330CE08B682BB1012B4FF0080310
:100D400003D0456104E0042302E0056100E00023D4
:100D5000FF2A01D8064601E000F104064FEA8405A7
:100D600001D9A5F12005D6F8008007FA05FC28EA8C
:100D70000C0803FA05F548EA0508C6F800804D6836
:100D8000ED0062D5374DAE6946F00106AE61AD6942
:100D900024F0030605F001050095334D06EB050C24
:100DA000DCF80850A607360F07FA06F825EA08050A
:100DB000DFF8B880404503D14FF0000817E044E069
:100DC000DFF8AC80404502D14FF001080FE0DFF8BA
:100DD000A480404502D14FF0020808E0DFF8988077
:100DE000404502D14FF0030801E04FF0040808FA33
:100DF00006F848EA0508CCF808804D68D9F8006084
:100E0000ED024D4601D5164300E096432E604D6835
:100E1000DAF80060AD02554601D5164300E096436E
:100E20002E604D68DBF80060AD035D4601D51643CA
:100E300000E096432E604D68DEF80060ED037546D5
:100E400001D5164300E096432E60641C0D682A46C7
:100E5000E5407FF431AFBDE8F88F000008040140A1
:100E60000000111000100240000001400008014085
:100E7000000C014000100140001401400AB1016162
:100E800070470904FBE700000148806870470000D4
:100E90001000002070B5040025D094F83D00002516
:100EA00020B984F83C50204600F050F9242084F802
:100EB0003D002068016821F001010160206801689F
:100EC00041F4004101602068016821F400410160A3
:100ED00000F098FA4D4A6168914201D84C4900E00F
:100EE0004C49884201D2012070BD4B492368B0FBB8
:100EF000F1F15E6826F03F060E435E606368934240
:100F000006D94FF4967359434FF47A73B1FBF3F15A
:100F10002368491C1E6A26F03F0631431962616846
:100F2000914210D84900401EB0FBF1F2521CC2F3AE
:100F30000B02042A01D2042022E0B0FBF1F0401C95
:100F4000C0F30B001CE0A268F2B301EBC10303EB9A
:100F50000116431EB3FBF6F35B1C43F480431B05F1
:100F600049D092B301EBC10202EB0111401EB0FB6C
:100F7000F1F0401CC0F30B0040F4804040F400400E
:100F80002168CA694CF6FF739A431043C861D4E9DB
:100F9000071001432068026822F0C002114301607B
:100FA000D4E9030101432068826848F2FF339A4381
:100FB00011438160D4E9050108432168CA6822F021
:100FC000FF021043C86001E00EE016E020680168EF
:100FD00041F0010101602564202084F83D00256373
:100FE00084F83E50002070BD01EB4106431EB3FB68
:100FF000F6F35B1CB3E70120C2E701EB4101401EA1
:10100000B0FBF1F0401CC0F30B00B7E7A086010075
:1010100080841E0000093D0040420F002DE9FF4F73
:1010200083B09A46DDE9119793460446DDF8408087
:10103000FFF72AFF054694F83D0020287FD11923A9
:10104000012240492046009501F094F9002876D10C
:1010500094F83C00012872D0012084F83C002068FC
:101060000168C90703D1016841F0010101602068EE
:10107000016821F400610160212084F83D004020D6
:1010800084F83E0000262664C4F82480A4F82A9040
:10109000608D20852C48E062CDE9007553465A46A4
:1010A0002046049901F0E6F870B930E02A46394646
:1010B000204601F005FA58B1206C042804D12068BC
:1010C000016841F400710160012007B0BDE8F08FB4
:1010D000606A216800780861606A401C6062218D46
:1010E000491E89B22185628D521E6285226853692C
:1010F000DB435B070BD469B100781061606A401C68
:101100006062208D401E2085608D401E6085208D90
:101110000028CBD12A463946204601F0FFF80028A6
:10112000CAD154F83D0B016841F4007101602020E0
:1011300004F81E09E67766770020C6E7FFE702207D
:10114000C3E70000020010000000FFFF10B586B0EA
:101150000021009101910291039100680F4988429A
:101160001AD10F4CA06940F00800A061A06969463F
:1011700000F008000490C02000901220019003208D
:1011800003900848FFF78AFDE06940F40010E06131
:10119000E06900F40010049006B010BD0054004057
:1011A00000100240000C014002488168027811449E
:1011B0008160704710000020074810B5016841F0B9
:1011C00010010160032000F075F80F2000F006F810
:1011D00000F024F8002010BD0020024070B50D4D35
:1011E00004464FF47A712878B1FBF0F00A49096897
:1011F000B1FBF0F000F0DCFA48B9102C07D2002265
:101200002146501E00F036F800206C6070BD0120B1
:1012100070BD0000100000201C0000200C4808B524
:10122000816941F001018161816901F00101009151
:10123000C16941F08051C161C06900F080500090E7
:101240000448416821F0E06141F00071416008BD4F
:101250000010024000000140002809DB00F01F02DE
:10126000012191404009800000F1E020C0F8001108
:1012700070470000F0B40E4B1B680C46C3F302230A
:10128000C3F10705042D00D90425191D072901D232
:10129000002300E0DB1E012606FA05F1491E21406D
:1012A00099409E40761E16403143F0BC01F030BD9F
:1012B0000CED00E0064900F0070208684FF6FF0356
:1012C000184040EA0220034A1043086070470000BB
:1012D0000CED00E00000FA052DE9F0470F4605008F
:1012E00061D0434E306800F00700B84209D2306840
:1012F00020F0070038433060306800F00700B84243
:1013000051D128683B4C810712D5400703D560684E
:1013100040F4E06060602878000703D5606840F41E
:10132000605060606068A96820F0F0000843606069
:101330002878C00728D06868012810D021680228C2
:1013400010D0890700292EDA616821F003010143DA
:101350006160FFF799FD804641F288390DE0216810
:101360008903EFE78901EDE7FFF78EFDA0EB0801A8
:10137000494502D90320BDE8F0876068696800F03C
:101380000C00B0EB810FEFD1306800F00700B842DD
:101390000BD9306820F0070038433060306800F027
:1013A0000700B84201D00120E5E72878400705D5BD
:1013B0006068E96820F4E06008436060287800070E
:1013C00006D56068296920F4605040EAC100606079
:1013D00000F038F86168084AC1F30311515CC84055
:1013E0000649086006480068FFF7F8FE0020C2E7DB
:1013F0000020024000100240DE3600081C000020E1
:10140000140000200448054900684968044AC1F3F3
:101410000221515CC84070471C00002000100240AF
:10142000EE3600080448054900684968044AC1F3DB
:10143000C221515CC84070471C00002000100240CF
:10144000EE3600080E4A51680E4801F00C03042BDA
:1014500011D0082B0FD10C48C1F38343C903C05CE2
:101460000AD55168084AC1F34041921E515C054AB1
:101470005043B0FBF1F07047044948437047000007
:101480000010024000127A00CE36000800093D002C
:101490002DE9F84F040070D02078C04DC00749D026
:1014A0006868C0F38100012807D06868C0F3810034
:1014B000022809D16868C00306D52868800339D599
:1014C00060680028E7D035E06068B0F5803F0BD059
:1014D00010B1B0F5A02F11D0286820F4803028601A
:1014E000286820F4802002E0286840F480302860DA
:1014F000606890B1FFF7C8FC06460AE0286840F42F
:1015000080202860F0E700BFFFF7BEFC801B642846
:1015100073D828688003F7D50CE0FFF7B5FC0646C2
:1015200005E000BFFFF7B0FC801B6428F0D82868F6
:101530008003F7D420789A4E80074FF001094FF0CE
:10154000000839D5686810F00C0F07D06868C0F340
:101550008100022809D16868C00306D42868800782
:1015600014D52069012808D110E02069B0B1C6F86F
:101570000090FFF789FC074605E00AE1FFF784FCCD
:10158000C01B0228C4D828688007F7D5286861697D
:1015900020F0F80040EAC10028600DE0C6F80080A5
:1015A000FFF772FC074604E0FFF76EFCC01B022841
:1015B00023D828688007F7D4207800072CD57948ED
:1015C000A169D9B1C0F80090FFF75EFC074604E0BE
:1015D000FFF75AFCC01B02280FD8686A8007F7D5AE
:1015E00071484FF4FA510068B0FBF1F0009000BF71
:1015F0000098411E0091FAD20EE080E0C0F8008011
:10160000FFF742FC074604E0FFF73EFCC01B022840
:1016100075D8686A8007F7D42078400760D5E869F4
:101620000027C00008D4E86940F08050E861E8690C
:10163000012700F0805000905C480168C90513D470
:101640000168834641F480710160FFF71DFC82460A
:1016500006E000BFFFF718FCA0EB0A0064284ED894
:10166000DBF80000C005F5D5E06801280AD008B114
:10167000052813D0286A20F001002862286A20F08B
:10168000040002E0286A40F001002862E06841F2AC
:10169000883B98B1FFF7F8FB82460BE0286A40F0E0
:1016A00004002862EEE700BFFFF7EEFBA0EB0A01A3
:1016B00059455AD8286A8007F6D50CE0FFF7E4FBB5
:1016C000824605E0FFF7E0FBA0EB0A0159454CD844
:1016D000286A8007F6D41FB1E86920F08050E861DD
:1016E000E06988B36968C1F38101022944D0022806
:1016F000C6F8608004D0FFF7C7FB044638E034E04A
:10170000FFF7C2FB074604E0FFF7BEFBC01B022841
:101710002BD828688001F7D4206AB0F5803F05D126
:101720006868A16820F4003008436860D4E90801C3
:101730000843696821F4741108436860C6F8609032
:10174000FFF7A2FB044606E025E000BFFFF79CFB85
:10175000001B022809D828688001F7D51BE000BFCC
:10176000FFF792FB001B022802D90320BDE8F88F87
:1017700028688001F4D40EE00128F7D06868226A56
:1017800000F48031914204D1616A00F47010884203
:1017900001D00120EAE70020E8E700000010024045
:1017A00000004242800442421C00002000700040C1
:1017B00010B5401EB0F1807F01D3012010BD4FF065
:1017C000E02460610F21601701F0A2FA0020A061FF
:1017D00007202061002010BD7047704770B590F859
:1017E0003C20012A26D0012480F83C40022280F8C7
:1017F0003D2003685A689D6822F070060A683243EB
:101800005A600D4B02689A4208D0B2F1804F05D061
:101810000A4B9A4202D00A4B9A4204D1496825F0F9
:1018200080031943916080F83D40002180F83C100E
:10183000084670BD022070BD002C0140000400402D
:101840000008004010B5040003D094F83D0010B12A
:1018500007E0012010BD002084F83C00204600F085
:101860001FF8022084F83D00211D206801F05AF87D
:10187000012084F8460084F83E0084F83F0084F894
:10188000400084F8410084F8420084F8430084F862
:10189000440084F8450084F83D00002010BD00009D
:1018A00008B500680B49884212D10B48816941F4A0
:1018B000006181618069002200F4006000900321D2
:1018C0001920FFF7D7FCBDE808401920FFF7C4BC7A
:1018D00008BD0000002C01400010024090F83D10AF
:1018E000012901D001207047022180F83D100168D4
:1018F000CA6842F00102CA6000680B49884208D0F9
:10190000B0F1804F05D00949884202D00849884289
:1019100004D1816801F00701062903D0016841F074
:101920000101016000207047002C014000040040CC
:101930000008004070B5044690F83C0000250128DE
:1019400017D0012684F83C60022084F83D0020680E
:10195000826822F0770222F47F4282600868502871
:1019600038D00DDC20284FD005DC90B3102811D1E1
:101970004AE0022070BD302846D040280AD13BE022
:1019800060282FD070280DD0B0F5805F03D0B0F55F
:10199000005F12D0012584F83D60002084F83C00EF
:1019A000284670BDCB68D1E90121206800F0F6FF20
:1019B0002068816841F0770109E0CB68D1E9012115
:1019C000206800F0EBFF2068816841F4804181606D
:1019D000E1E719E0CA684968206800F0F1FF50218A
:1019E000206806E0CA684968206800F0FAFF6021B4
:1019F000206800F0DDFFCEE7CA684968206800F083
:101A0000DFFF40212068F4E7226801461046F0E736
:101A100070472DE9F04104460068C66805694FF03B
:101A20000007A90713D5B10711D5F91E01610120DF
:101A30002077206880698007204602D0FFF7E8FF02
:101A400004E000F07EF8204600F07CF82777680775
:101A500016D5700714D521686FF0040008610220C4
:101A600020772068806910F4407F204602D0FFF77D
:101A7000CFFF04E000F065F8204600F063F8277718
:101A8000280715D5300713D521686FF008000861C5
:101A9000042020772068C0698007204602D0FFF725
:101AA000B7FF04E000F04DF8204600F04BF8277730
:101AB000E80616D5F00614D521686FF0100008610D
:101AC000082020772068C06910F4407F204602D0AB
:101AD000FFF79EFF04E000F034F8204600F032F8F3
:101AE0002777E80708D0F00706D021686FF00100DB
:101AF0000861204600F028F8280608D5300606D5EB
:101B000021686FF0800008612046FFF765FE6806D7
:101B100008D5700606D521686FF0400008612046A0
:101B200000F03AF8A8060AD5B00608D521686FF08B
:101B3000200008612046BDE8F041FFF74EBEBDE839
:101B4000F0817047704700001149006809688842B9
:101B50001CD11048012190F8672062B190F86520EF
:101B6000521CD2B280F86520642A04D3002280F887
:101B7000672080F86810B0F8D820521C92B2A0F804
:101B8000D820B2F57A7F01D980F8DA1070470000CA
:101B9000BC200020DC210020704770477047000007
:101BA000F8B5016804460868CA684B6910F00F0F61
:101BB0004FF0000559D003F0010602F49077374347
:101BC00065D0C10705D0D10503D5616C41F0010195
:101BD0006164410705D5D90703D0616C41F002016A
:101BE0006164810705D5D90703D0616C41F0040118
:101BF0006164010707D502F02001314303D0616C15
:101C000041F008016164616C00293AD0800604D576
:101C1000900602D5204600F025FF20684069616CDF
:101C2000C0F38010090700D460B3204600F0F3FE33
:101C300020684069400621D52068143050E8001F14
:101C400021F0400140E80012002AF5D1E06BA8B174
:101C50006D494163E06BFEF7C3FF002811D0E06BD4
:101C6000416B01B0BDE8F040084783060FD59306ED
:101C70000DD52046BDE8F84000F0F4BE2046FFF741
:101C80008DFFF8BD2046FFF789FF6564F8BD266B20
:101C90002023012E7CD1C6067AD5D60678D50868D1
:101CA0004868009048694FF00206400640D5E16B55
:101CB000086840680004000CE8D0A28D8242E5D993
:101CC000E085886920282DD020680C3050E8001F5E
:101CD00021F4807140E80012002AF5D12068143008
:101CE00050E8001F21F0010140E80012002AF5D160
:101CF0002068143050E8001F21F0400140E8001235
:101D0000002AF5D184F84230256320680C3050E871
:101D1000001F21F0100140E80012002AF5D1E06B0D
:101D2000FEF73AFF6663A08DE18D401A81B22AE08A
:101D3000A08DE18D401A81B2E08D0028A6D0002947
:101D4000A4D022680C3252E8000F20F4907042E8D0
:101D50000007002FF5D12068143050E8002F22F042
:101D6000010240E80027002FF5D184F842302563B6
:101D700020680C3050E8002F22F0100240E80023C9
:101D8000002BF5D166632046FFF707FFF8BDFFE79C
:101D900005062BD5150629D594F841002128F5D143
:101DA000A068B0F5805F01D12069B0B1206A411C04
:101DB0002162216800784860E08C401E0004000C1D
:101DC000E084E3D12068C16821F08001C16020680F
:101DD000C16841F04001C160D8E7206A0088C0F3C3
:101DE00008004860206A801C2062E5E74006CDD5E7
:101DF0005006CBD5CA68204622F04002CA6084F85B
:101E0000413000F0EFF9C1E7072A000870B504007F
:101E100004D094F84100002510B106E0012070BD07
:101E200084F84050204600F023F8242084F8410034
:101E30002068C16821F40051C160204600F074FEA2
:101E40002068016921F4904101612068416921F015
:101E50002A0141612068C16841F40051C160656494
:101E6000202084F8410084F842006563002070BDA2
:101E7000F0B585B0002400940194029403940368A3
:101E8000424F022042490322424D4602BB4225D125
:101E90008B6943F480438B618B6903F48043049323
:101EA0008B6943F004038B618969039201F004019B
:101EB00004910102CDE9001069462846FEF7EEFEC6
:101EC000CDE90064694628460294FEF7E7FE002249
:101ED00011462520FFF7CEF9252028E02E4FBB42E2
:101EE00029D1CB6943F40033CB61CB6903F40033D0
:101EF00004938B6943F004038B618969039201F0B9
:101F0000040104910421CDE9001069462846FEF73A
:101F1000C5FE0820CDE90004694628460294FEF774
:101F2000BDFE002211462620FFF7A4F92620FFF768
:101F300093F905B0F0BD194DAB42FAD1CB6943F42A
:101F40008023CB61CB6903F4802304938B6943F036
:101F500008038B618969124D01F00801CDE9032165
:101F6000CDE9006069462846FEF798FEE814CDE901
:101F70000004694628460294FEF790FE00220321E1
:101F80002720FFF777F92720D1E70000003801402C
:101F9000001002400008014000440040004800409A
:101FA000000C014090F84230202B01D002207047F5
:101FB00021B11AB10023036300F012BE0120704763
:101FC000F8B54E49006800258E144D4C88421BD14F
:101FD0004C492078A2780A54401CC0B220700128D5
:101FE0000DD9084410F8011C0A2908D110F8020C78
:101FF0000D2804D1257031464248FEF7ACF840491F
:102000000122891C404870E0404A012190421BD1C6
:102010003F4890F86820012A0ED0237990F8664056
:10202000421CA35490F86620521CD2B280F866205D
:1020300080F86550012A04D031490122091D354834
:1020400053E080F86710F7E7334A904255D1334A9E
:102050006078E3781354401CC0B26070104410F8EC
:10206000010C0A283DD1E1802DA11046FEF77EF833
:102070004FF47F470090A0B12BA1FEF777F80090B6
:1020800078B108300A2269460090FEF781F880B2E4
:10209000208101282DD00023012205211F2000F0DE
:1020A000A3F824A11D48FEF761F80090A0B11EA17D
:1020B000FEF75CF8009078B108300A22694600907B
:1020C000FEF766F880B26081012814D00023022256
:1020D00005211F2000F088F8657031460F48FEF793
:1020E0003AF8074901221648C91CBDE8F840FFF735
:1020F00059BF3B46D0E73B46E9E7F8BD0038014011
:102100000000002040000020042100200044004086
:10211000DC2100204C21002000480040401000201D
:102120002257696E64223A002276616C7565223A04
:1021300000000000225761746572223A000000001E
:10214000942100202DE9F843044690F84100984678
:1021500016460D46202802D00220BDE8F88385B13E
:102160007EB100206064212084F84100FEF78CFEDF
:10217000A6848146E684A0682027B0F5805F02D05F
:1021800003E00120E9E7206910B12E4600250EE0AA
:1021900000260CE08021204600F03DFDA8B9C6B124
:1021A00016F8010B21684860E08C401EE084E08C4A
:1021B0004B464FF00002CDF800800028EAD14FF0E6
:1021C0004001204600F027FD40B184F84170032013
:1021D000C3E735F8020BC0F30800E3E784F8417069
:1021E0000020BAE77047FEE770B5144C84F8D500BC
:1021F00004F8CD0F100A6170A070E270180A207107
:102200000E4863710621CD3000F0A8FA010AA171D1
:10221000E071012210210A48CD3CFEF72FFE642018
:10222000FEF72AFD0025601990F8CD0000F0B8FAFD
:102230006D1CADB2082DF6D370BD0000DC2100206E
:102240000008014001684A69D24352050FD46FF477
:1022500080624A61002140F8301F2022427381735E
:10226000026942F0040202610173012070470020FC
:10227000704700002DE9F843044600680D46DDE98B
:10228000089701689846164641F4807101604B46F4
:1022900000224FF001112046009700F06BF848B182
:1022A00020680068C00502D54FF400702064032048
:1022B000BDE8F883216805F0FE0008613B464A4608
:1022C0001549204600F09EF888B920684169806968
:1022D00000903A464946204600F0F2F848B1206C9A
:1022E000042804D12068016841F4007101600120D4
:1022F000DEE7F5B2B8F1010F09D02168300A0861B4
:102300003A464946204600F0DBF80028E7D120682D
:1023100005610020CCE700000200010070B5164600
:102320000D4604461EE02046FFF78CFF08B1012051
:1023300070BD681C16D0FEF7A7FD801BA84200D810
:1023400085B920684069C04340070BD5002044F898
:10235000300F20216173A073216941F020012161B8
:102360002073E4E720684069C0434007DBD40020C5
:1023700070BD00002DE9F047984617460D4604460B
:10238000C1F30746DDF820902AE000BFB8F1FF3F17
:1023900026D0FEF779FDA0EB0901414502D8B8F13E
:1023A000000F1DD12068012E16D0806925EA00009B
:1023B0000004000C12D00020B84211D1002044F8D3
:1023C000300F20216173A073216941F02001216148
:1023D00020730120BDE8F0874069E7E70120EBE7C3
:1023E0002068012E0AD0806925EA00000004000C54
:1023F00006D00020B842C9D00020EBE74069F3E7DF
:102400000120F7E72DE9F047984616460D460446A9
:102410004FF000094FF0200AC1F3074723E020687E
:102420004069C043400515D42068016841F400713B
:10243000016021686FF480604861C4F8309084F8CE
:102440003DA084F83E90216C41F00401216484F8A1
:102450003C9021E0701C06D0FEF716FDA0EB0800B2
:10246000B04203D816B1012F1FD021E02068012F00
:1024700015D0806925EA00000004000C18D000BFC8
:1024800044F8309F84F80DA084F80E90216941F043
:102490002001216184F80C900120BDE8F08740699B
:1024A00025EA00000004000CEAD12068406901E040
:1024B0002068806925EA00000004000CAFD1ECE739
:1024C00070B516460D4604461EE02046FFF7BAFEDC
:1024D00008B1012070BD681C16D0FEF7D5FC801B2A
:1024E000A84200D885B920684069C04300060BD5D2
:1024F000002044F8300F20216173A073216941F05E
:10250000200121612073E4E720684069C043000690
:10251000DBD4002070BD00000F4810B50D490160EC
:102520000921416000214FF480228160C0E903123B
:10253000920042610176012242768276C17601776D
:102540004177FEF752FA002803D0BDE81040FEF7AD
:102550004BB910BD00640040402000202DE9F0413F
:1025600086B0002424480094019402940394816965
:1025700041F010018161816901F0100104918169CC
:1025800041F020018161816901F02001049181699C
:1025900041F004018161816901F0040104918169C4
:1025A00041F0080181618069144F00F008004FF488
:1025B00000550490002229463846FEF75FFCDFF8FC
:1025C0004080002210214046FEF758FC009502266C
:1025D00001250396CDE9015469463846FEF75EFBB6
:1025E0001020CDE90005CDE9024669464046FEF7D8
:1025F00055FB06B0BDE8F08100100240001001401C
:10260000000801400D4810B50B4901600C494160BC
:1026100000214FF480428160C0E903124161816171
:10262000C1610162FEF736FC002803D0BDE810400E
:10263000FEF7DAB810BD000000540040682000200A
:10264000A086010010B586B00024184800940194BB
:102650000294039404941449059401604721C0E94D
:10266000011440F2E731C0E903148021C0E90541BB
:10267000FFF7E8F808B1FEF7B7F84FF48050009084
:1026800069460A48FFF756F908B1FEF7ADF8049419
:1026900004A906480594FFF7A1F8002801D0FEF729
:1026A000A3F806B010BD0000002C0140BC200020A3
:1026B0000C4810B50A4901604FF4E1314160002136
:1026C00081600C22C160C0E904128161C161FFF721
:1026D0009DFB002803D0BDE81040FEF785B810BD73
:1026E00000380140042100200C4810B50A4901605F
:1026F0004FF416514160002181600C22C160C0E995
:1027000004128161C161FFF781FB002803D0BDE89D
:102710001040FEF769B810BD004400404C21002075
:102720000C4810B50A4901604FF4E13141600021C5
:1027300081600C22C160C0E904128161C161FFF7B0
:1027400065FB002803D0BDE81040FEF74DB810BD72
:102750000048004094210020FEE7000070B5094DBC
:10276000FF22134605F5807606E000BF10F8014B06
:1027700054402A5D5A40335D491E89B2F6D243EA7D
:10278000022070BDF63600080448022101700021C5
:1027900080F86710042180F8D5107047DC210020F4
:1027A00001B5FF23012269460148FFF7CBFC08BDB4
:1027B0004C210020FEE770B5002404F1B000C0B247
:1027C00000F052F8002000F04FF8102000F04CF814
:1027D0000025002000F05AF86D1CEDB2802DF8D3D2
:1027E000641CE4B2082CE8D370BD10B5C820FEF715
:1027F00043FABDE8104000F061BA10B50446B031AC
:10280000C8B200F031F8102040EA141000F02CF8A3
:1028100004F00F00BDE8104000F026B82DE9F041AB
:1028200015460E460746FFF7E8FF0E48002400EB6A
:102830008515285D00F02AF8641CE4B2102CF8D34A
:10284000761CF1B23846FFF7D8FF0024281990F81B
:10285000200000F01BF8641CE4B2102CF6D3BDE895
:10286000F0810000FE40000801B584B001214FF462
:10287000807204A88DE807000B46002278210248E8
:10288000FEF7CCFB05B000BD6820002001B584B088
:1028900001214FF4807204A88DE807000B46402206
:1028A00078210248FEF7BAFB05B000BD6820002081
:1028B00070477047FEF778BC30B58FB02821684666
:1028C000FDF749FC14210AA8FDF745FC0121080485
:1028D000CDE900100024029402250491CDE90750AF
:1028E0004FF4E01009906846FEF7D2FD08B172B6C9
:1028F000FEE70F20CDE90A054FF48060CDE90C40DA
:1029000002210AA80E94FEF7E7FC002801D072B657
:10291000FEE70FB030BD70470148FFF77AB80000FE
:10292000BC200020F0B50268194B1A4C1A4D4FF02C
:102930008047984205D0B84203D0A04201D0A842B7
:1029400003D122F070064A683243984205D0B8425B
:1029500003D0A04201D0A84203D122F44074CA6837
:1029600022434C6922F08002224302608A68C262DC
:102970000A688262984201D10969016301214161BB
:102980000169C90703D0016921F001010161F0BDAE
:10299000002C0140000400400008004010B584688D
:1029A00042EA032224F47F440A432243826010BD9A
:1029B000826822F070020A4342F00701816070478A
:1029C00010B5036A046A24F001040462846924F0E7
:1029D000F00444EA021423F00A020A43846102620A
:1029E00010BD10B5036A046A24F0100404628469FF
:1029F00023F0A00324F4704444EA023243EA0111B4
:102A00008261016210BD10B5406A0021C185C18498
:102A1000FFF7C4F810BD01680C3151E8002F22F413
:102A2000907241E80023002BF5D10168143151E880
:102A3000002F22F0010241E80023002BF5D1016BA9
:102A4000012909D101680C3151E8002F22F0100250
:102A500041E80023002BF5D1202180F8421000210D
:102A60000163704708B590F84210222901D0022076
:102A700008BD82684FF480539A4201D1016921B1A7
:102A8000816A9A421BD04AB10AE00268816A5268A0
:102A9000C2F308020A80816A891C08E0026972B1E7
:102AA0000268526802F07F020A70816A491C8162E2
:102AB000C18D491E0904090CC18503D01BE00268C1
:102AC0005268F1E70168CA6822F02002CA60016812
:102AD000CA6822F48072CA6001684A6922F0010261
:102AE0004A61202180F8421000214163026B012AD3
:102AF00003D0FFF765FA002008BD016301680C31BF
:102B000051E8002F22F0100241E80023002BF5D1FC
:102B100001680A68D20602D50A6849680091818D69
:102B2000FFF73BF8E7E7000070B50446006801696D
:102B3000E26821F44051114301612169A068084312
:102B4000616908432168CA6841F20C639A430243F1
:102B5000CA6020684169A26921F440711143416152
:102B60001E492068884202D1FEF75CFC01E0FEF7B6
:102B700049FC00EBC00101EB001260686421800099
:102B8000B2FBF0F3B3FBF1F36FF018067343B2FB43
:102B9000F0F5B2FBF0F605EB8305322303EB0515E8
:102BA000B5FBF1F5B6FBF1F605F0F00505EB061502
:102BB000B2FBF0F6B2FBF0F0B0FBF1F06FF01802F0
:102BC000504306EB800003EB0010B0FBF1F02168EE
:102BD00000F00F002844886070BD000000380140FC
:102BE00081628285C28500214164222180F84210E1
:102BF000016921B10168CA6842F48072CA60016843
:102C00004A6942F001024A610068C16841F020014E
:102C1000C160002070472DE9F843984617460D46DD
:102C20000446089E24E0701C22D0FEF72DF9A0EB8C
:102C30000800B0421AD8CEB12068C168490717D53C
:102C4000802D15D0402D13D00168C94309070FD43A
:102C500001680025406800902046FFF7DCFE082050
:102C6000606484F840500120BDE8F8830320FBE74E
:102C70002068006835EA000004D00020B842D2D0B5
:102C80000020F1E70120F9E70148FEF789BF0000C5
:102C9000042100200148FEF783BF00004C210020E2
:102CA0000148FEF77DBF0000942100200148FDF798
:102CB0009EBD000040200020FEE70000FEB500247D
:102CC000094F4FF4807501263819CDE9000601231C
:102CD0000022782102950548FEF7A0F9641CE4B2B1
:102CE0001B2CF1D3FEBD0000200000206820002036
:102CF0000FB4054B10B503A9044A029800F0EEF892
:102D000010BC5DF814FB0000E53500080C00002045
:102D10000907090E002804DB00F1E02080F8001408
:102D2000704700F00F0000F1E02080F8141D70479C
:102D3000004870473C00002002E008C8121F08C18C
:102D4000002AFAD170477047002001E001C1121F2C
:102D5000002AFBD1704700002DE9FF5F82B00021FF
:102D6000DDE90430020DDDF840B0034318D044F62D
:102D70001050A2F2FF3242431514119801281FD0BF
:102D8000A5EB0B00401C5FEA000A4FF000064E4F17
:102D9000DFF83891B046504615D5CAF1000413E06B
:102DA000119801244AA3012801D16FEA0B0102986E
:102DB000119AC0E90031C0E9024206B0BDE8F09FB7
:102DC000CBF10000DFE704460021404A491842EBFE
:102DD0000450CDE9001012E0E00707D032463B4630
:102DE00040464946FDF7B3FA8046894632463B469F
:102DF00010461946FDF7ABFA06460F466410002C44
:102E0000EAD1DDE90401DDE90023BAF1000F06DAB9
:102E1000FDF79DFA42464B46FDF799FA05E0FDF7AE
:102E200039FC42464B46FDF735FC04460E4600226F
:102E3000284BFDF7FFFA03D84FF0FF30014607E0BB
:102E40000022254B20463146FDF7DAF9FDF791FCCB
:102E5000102409E0002C0ADB0A220023FDF718FBEE
:102E6000039B30321A55641E50EA0102F2D1641CF1
:102E7000039AC4F111031444119A012A03D00122C8
:102E800008430DD10AE0084304D000204FF0110B95
:102E9000119072E7A3EB0B056D1E0DE05B4504DDA1
:102EA0004FF0000205F1010504E003DA4FF00002E3
:102EB000A5F10105002AECD002981199C0E9023170
:102EC000C0E9004579E70000000014400000F03F31
:102ED000300000000000F0430000E03F2DE9FF4F0C
:102EE00095B09A46884606460025EEE1252877D11A
:102EF00000242746F94A0121039400E0044316F810
:102F0000013F203B01FA03F01042F7D130782A2824
:102F100011D06FF02F033078A0F13002092A16D8B3
:102F2000039A44F0020402EB820203EB42021044D3
:102F3000761C0390EFE758F8042B0392002A03DA7B
:102F4000504244F40054039044F00204761C30785C
:102F50002E2816D116F8010F44F004042A280DD0AB
:102F60006FF02F023078A0F13003092B09D807EB5E
:102F7000870302EB4303C718761CF3E758F8047B7A
:102F8000761C30786C280FD006DC4C2817D06828C7
:102F90000DD06A2814D104E0742810D07A280FD1FB
:102FA0000DE044F400140AE044F4801401E044F419
:102FB00040147278824202D104F58014761C761C8B
:102FC000307866280BD013DC582877D009DC00282D
:102FD00075D04528F6D04628F4D047281AD193E179
:102FE00018E0632835D0642879D0652812D18BE1A8
:102FF000702873D008DC6728F1D069286FD06E285C
:103000000DD06F2806D1ACE073282CD0752874D071
:10301000782853D05246179990476D1C54E1C4F359
:103020000250022809D003280DD0D8F80010042837
:103030000DD00D6008F1040846E1D8F80010EA1739
:10304000C1E90052F6E7D8F800100D80F2E70D70E4
:10305000F0E718F8041B8DF8001000208DF801002F
:10306000EB46012003E058F804BB4FF0FF30610746
:103070004FF0000102D40DE009F101018946B94287
:103080000FDA8145F8DB1BF809100029F4D108E0BC
:1030900009F1010189468142FADB1BF80910002978
:1030A000F6D103985346A0EB090721463846179AF4
:1030B00000F080FA284400EB090507E044E008E14D
:1030C0000DE01BF8010B524617999047B9F1010921
:1030D000F7D2534621463846179AF2E039E00A21E2
:1030E000C4F302524FF0000B0091022A06D058F8A8
:1030F000040BC117032A09D00AE023E008F10700F6
:1031000020F00702F2E80201904605E000B2C11784
:10311000042A01D140B2C117002906DA0A4600216B
:10312000404261EB02012D2202E0220504D52B2250
:103130008DF80420012203E0E20701D02022F7E706
:10314000914657E00A2100E010214FF0000B00915A
:103150000BE010214FF0000B44F00404082700910D
:1031600003E008204FF0000B0090C4F30252022A43
:1031700005D058F8040B0021032A08D008E008F114
:10318000070020F00702F2E80201904603E080B257
:10319000042A00D1C0B24FF0000922072AD53278A4
:1031A000702A07D0DDF800C08CF0100C5CEA0B0C24
:1031B00005D00EE040228DF80420012208E050EAFC
:1031C000010306D030238DF804308DF8052002224B
:1031D0009146009B83F0080353EA0B030AD150EA9F
:1031E000010201D1620705D530228DF804204FF08D
:1031F00001097F1E3278582A04D039A20C920CAAF9
:1032000002920BE03BA2F9E75B46009AFDF740F91A
:103210000C9B9B5C029A521E0292137050EA0102B0
:10322000F2D1029804A9081A00F1200B600702D518
:1032300024F4803400E001275F4502DDA7EB0B009A
:1032400000E0002000EB0B01009003984944401A75
:103250000390E00306D453462146179A039800F0E2
:10326000A9F90544002706E001A85246C05D179958
:1032700090476D1C7F1C4F45F6DBE0030CD5534691
:103280002146179A039800F095F9054404E0302090
:103290005246179990476D1C0099481E00900029CE
:1032A000F5DC08E00298029952460078491C029128
:1032B000179990476D1CBBF10001ABF1010BF1DCDC
:1032C0005BE100F065F90544761C307800287FF456
:1032D0000DAE19B02846BDE8F08F000009280100A6
:1032E000303132333435363738396162636465667C
:1032F000000000003031323334353637383941423E
:103300004344454600000000600700D4062708F14A
:10331000070020F00700F0E80223804603F0004C8D
:103320005FEA0C0001D097A009E0200501D596A026
:1033300005E0E00701D095A001E0AFF24C0013904A
:10334000307823F0004365280CD006DC452809D0EE
:1033500046281DD047287FD13BE0662818D0672833
:103360007AD136E00021112F01DB112000E0781C1A
:10337000CDE9000104A90CA8FFF7EEFCDDE90D0181
:103380000C9A4FF0000B07F10109109200914EE0EA
:103390004FF000400097CDE9011004A90CA8FFF7F9
:1033A000DBFCDDE90D020C9B0F994FF0000B914601
:1033B0001093009211B9791C00EB0109B7EB0900D9
:1033C00003D4C0F1FF3B07F10109A9EB070001900D
:1033D00042E0012F00DA01270021112F01DD112029
:1033E00000E03846CDE9000104A90CA8FFF7B4FCC1
:1033F000DDE90D010C9A00914FF0000BB9461092D7
:1034000021070FD4009A4A4503DA914601E0A9F159
:103410000109B9F1010F05DD109AA9F10101515C13
:103420003029F4D0B84202DA10F1040F03DA012196
:10343000CDE9011010E0002803DC8344A9EB000172
:1034400002E0411C494500DD8946A0EB0B00401C11
:1034500001904FF000400290200705D401984845A4
:1034600002DB4FF0FF30019000208DF84B000298F6
:103470000DF14B07B0F1004F25D002200C902B200E
:103480000D90029800280CDA404202902D200D90F9
:1034900007E00A210298FCF7E5FF3031029007F8B7
:1034A000011D0C99481E0C900029F2DC029800289E
:1034B000EFD1791E0D980870307800F0200040F0B0
:1034C000450007F8020D11A8C01BC01D02901398FB
:1034D000007800B1012000EB0901019801EBE071D7
:1034E000029801440398401A401E0390E00306D45A
:1034F00053462146179A039800F05CF80544139848
:10350000007818B15246179990476D1CE00323D5F7
:1035100053462146179A039800F04CF805441BE0E7
:10352000BBF1000F07DB0098584504DD1098179990
:1035300010F80B0001E0179930205246904701988F
:103540000BF1010B401E05F10105019004D12E2065
:103550005246179990476D1CB9F10001A9F1010974
:10356000DEDC05E017F8010B5246179990476D1CF9
:103570000299481E02900029F4DC53462146179A0E
:1035800003989EE62D0000002B00000020000000A4
:103590002DE9F041044600251E461746880404D450
:1035A00005E039462020B0476D1C641EF9D5284639
:1035B000BDE8F0812DE9F041044600251E46904605
:1035C000C80301D5302700E02027880404D505E092
:1035D00041463846B0476D1C641EF9D52846BDE803
:1035E000F081000013B540F6FF73012269460248DE
:1035F000FEF7A8FD00981CBD04210020FDF7DCFDAE
:10360000FFF75AF9FEF7AAFFFFF752F8FFF76CF839
:10361000FFF786F8FEF7F6FFFFF714F8FEF77CFFDA
:10362000012221492148FEF7BDFC1F490122891CC6
:103630001F48FEF7B7FC01221B491E48FEF7B2FCEB
:103640001D48FEF74BF9002210211C48FDF716FC1F
:10365000FFF79AF8FFF7C9F8FFF7ADF84FF47A7063
:10366000FDF70AFB002201211920FFF7D7F80122FC
:1036700011462920FFF7D2F8022201213920FFF755
:10368000CDF8032201214920FFF7C8F804220121C7
:103690005920FFF7C3F80A4C94F8DA000028FBD051
:1036A00008A0FFF725FBF7E7020000200421002017
:1036B0004C21002094210020BC2000200008014063
:1036C000DC21002068656C6C6F0D0A0001020203AA
:1036D0000405060708090A0B0C0D0E0F1010000058
:1036E00000000000000001020304060708090000B2
:1036F00000000102030400C1814001C0804101C0FB
:10370000804100C1814001C0804100C1814000C1B1
:10371000814001C0804101C0804100C1814000C1A1
:10372000814001C0804100C1814001C0804101C091
:10373000804100C1814001C0804100C1814000C181
:10374000814001C0804100C1814001C0804101C071
:10375000804100C1814000C1814001C0804101C061
:10376000804100C1814001C0804100C1814000C151
:10377000814001C0804101C0804100C1814000C141
:10378000814001C0804100C1814001C0804101C031
:10379000804100C1814000C1814001C0804101C021
:1037A000804100C1814001C0804100C1814000C111
:1037B000814001C0804100C1814001C0804101C001
:1037C000804100C1814001C0804100C1814000C1F1
:1037D000814001C0804101C0804100C1814000C1E1
:1037E000814001C0804100C1814001C0804101C0D1
:1037F000804100C1814000C0C101C30302C2C606AE
:1038000007C705C5C404CC0C0DCD0FCFCE0E0ACA18
:10381000CB0BC90908C8D81819D91BDBDA1A1EDE68
:10382000DF1FDD1D1CDC14D4D515D71716D6D21218
:1038300013D311D1D010F03031F133F3F23236F628
:10384000F737F53534F43CFCFD3DFF3F3EFEFA3AD8
:103850003BFB39F9F83828E8E929EB2B2AEAEE2E68
:103860002FEF2DEDEC2CE42425E527E7E62622E2D8
:10387000E323E12120E0A06061A163A3A26266A628
:10388000A767A56564A46CACAD6DAF6F6EAEAA6A98
:103890006BAB69A9A86878B8B979BB7B7ABABE7EE8
:1038A0007FBF7DBDBC7CB47475B577B7B67672B298
:1038B000B373B17170B05090915193535292965628
:1038C0005797559594549C5C5D9D5F9F9E5E5A9A58
:1038D0009B5B99595898884849894B8B8A4A4E8EE8
:1038E0008F4F8D4D4C8C4484854587474686824258
:1038F0004383418180400000000000000000002F51
:10390000000000000700070000147F147F1400244B
:103910002A7F2A1200626408132300364955225078
:1039200000000503000000001C22410000004122AD
:103930001C000014083E08140008083E0808000097
:1039400000A060000008080808080000606000008F
:10395000002010080402003E5149453E0000427F0D
:103960004000004261514946002141454B31001859
:1039700014127F10002745454539003C4A4949301B
:1039800000017109050300364949493600064949D5
:10399000291E0000363600000000563600000008E0
:1039A00014224100001414141414000041221408BD
:1039B00000020151090600324959513E007C1211A2
:1039C000127C007F49494936003E41414122007F37
:1039D0004141221C007F49494941007F09090901F1
:1039E000003E4149497A007F0808087F0000417F76
:1039F0004100002040413F01007F08142241007F28
:103A000040404040007F020C027F007F0408107F8E
:103A1000003E4141413E007F09090906003E4151F7
:103A2000215E007F091929460046494949310001B4
:103A3000017F0101003F4040403F001F2040201F08
:103A4000003F4038403F00631408146300070870CB
:103A5000080700615149454300007F41410000557E
:103A60002A552A55000041417F000004020102044A
:103A70000040404040400000010204000020545437
:103A80005478007F48444438003844444420003887
:103A90004444487F00385454541800087E090102F9
:103AA0000018A4A4A47C007F080404780000447DCE
:103AB0004000004080847D00007F1028440000000A
:103AC000417F4000007C04180478007C08040478DE
:103AD00000384444443800FC2424241800182424CA
:103AE00018FC007C080404080048545454200004C6
:103AF0003F444020003C4040207C001C2040201CD3
:103B0000003C4030403C004428102844001CA0A049
:103B1000A07C004464544C44141414141414000085
:103B20000000000000000000000000000000000095
:103B300000F800000000000000333000000000101A
:103B40000C06100C0600000000000000000040C041
:103B50007840C0784000043F04043F040400007033
:103B600088FC08300000001820FF211E0000F0082B
:103B7000F000E018000000211C031E211E0000F0D0
:103B80000888700000001E21232419272110101618
:103B90000E00000000000000000000000000000017
:103BA00000E0180402000000000718204000000296
:103BB0000418E0000000004020180700000040400A
:103BC00080F0804040000202010F0102020000006C
:103BD00000F0000000000101011F010101000000D0
:103BE00000000000000080B0700000000000000035
:103BF00000000000000000010101010101010000BE
:103C00000000000000000030300000000000000054
:103C1000000080601804006018060100000000E049
:103C200010080810E000000F102020100F000010F6
:103C300010F8000000000020203F2020000000704D
:103C40000808088870000030282422213000003045
:103C50000888884830000018202020110E0000003D
:103C6000C02010F8000000070424243F240000F8BE
:103C70000888880808000019212020110E0000E0A3
:103C8000108888180000000F112020110E00003845
:103C90000808C83808000000003F0000000000705D
:103CA000880808887000001C222121221C0000E0E6
:103CB00010080810E0000000312222110F0000005F
:103CC00000C0C00000000000003030000000000014
:103CD0000080000000000000806000000000000084
:103CE000804020100800000102040810200040401D
:103CF0004040404040000404040404040400000860
:103D00001020408000000020100804020100007014
:103D100048080808F0000000003036010000C030FC
:103D2000C828E810E0000718272423140B0000001F
:103D3000C038E0000000203C23020227382008F8A9
:103D4000888888700000203F202020110E00C0309D
:103D5000080808083800071820202010080008F874
:103D600008080810E000203F202020100F0008F86D
:103D70008888E8081000203F20202320180008F839
:103D80008888E8081000203F200003000000C030B1
:103D900008080838000007182020221E020008F832
:103DA00008000008F808203F210101213F200008F9
:103DB00008F8080800000020203F20200000000034
:103DC0000808F8080800C08080807F00000008F81C
:103DD00088C028180800203F20012638200008F855
:103DE000080000000000203F20202020300008F8BC
:103DF000F800F8F80800203F003F003F200008F8D6
:103E000030C00008F808203F200007183F00E010ED
:103E100008080810E0000F10202020100F0008F8FC
:103E200008080808F000203F210101010000E0100F
:103E300008080810E0000F18242438504F0008F834
:103E4000888888887000203F2000030C3020007094
:103E50008808080838000038202121221C00180892
:103E600008F8080818000000203F2000000008F8AB
:103E700008000008F808001F202020201F000878F4
:103E8000880000C83808000007380E010000F80854
:103E900000F80008F800033C0700073C030008187E
:103EA00068808068180820302C03032C30200838E4
:103EB000C800C83808000000203F2000000010089B
:103EC0000808C838080020382621202018000000E3
:103ED00000FE020202000000007F40404000000C93
:103EE00030C000000000000000010638C0000002E1
:103EF0000202FE000000004040407F000000000081
:103F000004020202040000000000000000000000A3
:103F1000000000000000808080808080808000029F
:103F2000020400000000000000000000000000008B
:103F30008080808000000019242222223F2008F87F
:103F4000008080000000003F112020110E000000C2
:103F5000008080800000000E112020201100000051
:103F600000808088F800000E112020103F20000003
:103F7000808080800000001F222222221300008007
:103F800080F0888888180020203F20200000000052
:103F9000808080808000006B94949493600008F887
:103FA000008080800000203F210000203F20008012
:103FB0009898000000000020203F20200000000012
:103FC00000809898000000C08080807F000008F882
:103FD000000080808000203F24022D302000000857
:103FE00008F8000000000020203F20200000808012
:103FF000808080808000203F20003F20003F808024
:10400000008080800000203F210000203F20000031
:10401000808080800000001F202020201F008080E2
:1040200000808000000080FFA12020110E00000011
:10403000008080808000000E112020A0FF80808002
:1040400080008080800020203F21200001000000AF
:104050008080808080000033242424241900008084
:1040600080E0808000000000001F20200000808091
:10407000000000808000001F202020103F20808052
:1040800080000080808000010E30080601008080E2
:104090000080008080800F300C030C300F00008007
:1040A0008000808080000020312E0E312000808032
:1040B00080000080808080818E7018060100008062
:1040C0008080808080000021302C22213000000080
:1040D0000000807C020200000000003F404000021F
:1040E000027C800000000040403F00000000000013
:1040F0000000FF00000000000000FF0000000000C2
:10410000F80000FF202000FF402010080000000001
:10411000000000000000000000000000000020601F
:104120003F20101F1010003F40404040780000002A
:10413000000000000000000000000000000000007F
:10414000020202FE020202625A4640C00000000063
:10415000000000000000000000000000000080409F
:1041600020180700000000004080403F00000000D1
:10417000000000000000000000000000000008280F
:1041800048890E8878080800F80000FF0000000049
:1041900000000000000000000000000000004020BF
:1041A00010090619600000000F40807F0000000029
:1041B00000000000000000000000000000000000FF
:1041C000FE02129292929292921202FE000000005F
:1041D00000000000000000000000000000000000DF
:1041E000FF00001F080808081F40807F0000000033
:1041F000000000000000000000000000000040304F
:104200001196909091969090981413503000000061
:104210000000000000000000000000000000040496
:1042200004040444847E060504040404040000001D
:10423000000000000000000000000000000000007E
:10424000FE021222C202C23202FE00000000000082
:10425000000000000000000000000000000080607E
:104260001F0020100C030C30000F3040F80000003D
:10427000000000000000000000000000000000003E
:10428000FC242424252624242424243C000000008B
:1042900000000000000000000000000000004030AE
:1042A0000F211549817F00211549817F0000000001
:1042B00000000000000000000000000000000020DE
:1042C0002020A06000FF6080402018000000000057
:1042D00000000000000000000000000000002010AE
:1042E00008060140807F0001020408101000000051
:1042F000000000000000000000000000000042423A
:104300002212FA969292929292F202020200000017
:104310000000000000000000000000000000404419
:1043200024140C44807F040810282442400000001C
:10433000000000000000000000000000000080827B
:104340008282FE8282828282FE82828280000000DD
:1043500000000000000000000000000000000080DD
:1043600040300F0000000000FF00000000000000CF
:10437000000000000000000000000000000000003D
:104380001011161010F0101014131000000000008F
:10439000000000000000000000000000000081811B
:1043A000414121110D030D11214141818100000086
:1043B00000000000000000000000000000000000FD
:1043C00000000000000000000000000000000000ED
:1043D00000000000000000000000000000000000DD
:1043E00000000000000000000000000000000000CD
:1043F00000000000000000000000000000000000BD
:1044000000000000000000000000000000000000AC
:10441000000000000000000000000000000000009C
:10442000000008080000000000000000000000007C
:104430000004000000000000000000000000000078
:10444000000000000000000000000000000000006C
:1044500000000000000000000000800000000000DC
:10446000000000000000000000000000002010100C
:1044700008080C0C040E06020203030101010000EF
:10448000000000000000000000000000000000002C
:10449000000000000000000000000000000000001C
:1044A00000000000000000400000000000000000CC
:1044B00000000000000001200000000000000000DB
:1044C00000000000000000000000000000000000EC
:1044D00000000000000000000000000000000000DC
:1044E00000000000000000000000000000000000CC
:1044F0000000000000010101030386068C8C98F087
:10450000F08000000000003F3C00000000010000BF
:10451000000000000000000000000200000000E1B8
:10452000FF2702000100000002030000000000005D
:10453000000000000000000000000000000000007B
:10454000000000000000000000000000000000006B
:1045500080C0000000000000000001010100030213
:10456000060406040404040008181010000020616A
:1045700021404181818183030301810302030302FE
:1045800002020202060607FF060606060604060EDB
:104590004647662404040404C4C45C0C8C8C0404E4
:1045A000FCBE0704A4C4C707960402000000000074
:1045B00000000000000004000000000000000000F7
:1045C00000000000000000000000000000000030BB
:1045D0003030307060B070E0E0E0E06060606060FB
:1045E00040406040C0C0C040C0C0C0C0C1838382E2
:1045F00083E2B2B2B616BF2F078300000303003870
:10460000300000000003FF9000000103434766777D
:10461000373B3F2E3C3E3C0C0C0C0F0E00000000C4
:104620000000E03F0B000000000000000000000060
:10463000000000000000000000000000000000007A
:10464000000000000000000000600000000000000A
:10465000000000000000000000000000000000005A
:10466000000000088000000000000078F88C0604BC
:104670000C08183860E08000000000000080000096
:104680000000000043FEF0000040E0306020E0C089
:10469000C0800000000000000000000000000000DA
:1046A00000000000E0F07C0E0700000000000000A9
:1046B00000000000020604000000000000000000EE
:1046C00000000000000000000000000000000000EA
:1046D00000000000000000000000000000000000DA
:1046E000000000000000000000000000000000408A
:1046F000400000000000000000000000000000007A
:1047000000000014FF020000000000000000000094
:104710000000000000000000000000000000000099
:104720000040000000000000800000000030000099
:1047300000000008004080C00000000000000000F1
:104740000000000000000000000000000000000069
:104750000000000000000000000000000000000059
:104760000000000000000000000000000000000049
:104770000000000000000000000000000000000039
:104780000000000000000000000000000000000029
:104790000000000000000000000000000000000019
:1047A0000000000000000000000000000000000009
:1047B00000000000000000000000000000000040B9
:1047C00040404040404040404141414141404040E4
:1047D0004040404040404040404040404040400514
:1047E000020202020202020202020202020202208B
:1047F000202020202020202020020202020202028B
:1048000090909090909010101010101010101010A8
:1048100010101010101010101010020202020202EC
:104820008888888888880808080808080808080808
:1048300008080808080808080808020202024000E0
:10484000BF47000864480008000000204000000046
:10485000382D0008A44800084000002078260000F9
:10486000482D0008000000000000000000000000CB
:104870000000000001000000100000000000000027
:1048800000127A00AE001040B081FFA1A6A83FC878
:10489000D300D580D805D9F1DA12D8308D14AF0005
:0448A0000000000014
:04000005080000ED02
:00000001FF
